{
  "_format": "hh-sol-artifact-1",
  "contractName": "MyNFT",
  "sourceName": "contracts/MyNFT.sol",
  "abi": [
    {
      "inputs": [
        {
          "internalType": "address",
          "name": "initialOwner",
          "type": "address"
        }
      ],
      "stateMutability": "nonpayable",
      "type": "constructor"
    },
    {
      "inputs": [
        {
          "internalType": "address",
          "name": "sender",
          "type": "address"
        },
        {
          "internalType": "uint256",
          "name": "tokenId",
          "type": "uint256"
        },
        {
          "internalType": "address",
          "name": "owner",
          "type": "address"
        }
      ],
      "name": "ERC721IncorrectOwner",
      "type": "error"
    },
    {
      "inputs": [
        {
          "internalType": "address",
          "name": "operator",
          "type": "address"
        },
        {
          "internalType": "uint256",
          "name": "tokenId",
          "type": "uint256"
        }
      ],
      "name": "ERC721InsufficientApproval",
      "type": "error"
    },
    {
      "inputs": [
        {
          "internalType": "address",
          "name": "approver",
          "type": "address"
        }
      ],
      "name": "ERC721InvalidApprover",
      "type": "error"
    },
    {
      "inputs": [
        {
          "internalType": "address",
          "name": "operator",
          "type": "address"
        }
      ],
      "name": "ERC721InvalidOperator",
      "type": "error"
    },
    {
      "inputs": [
        {
          "internalType": "address",
          "name": "owner",
          "type": "address"
        }
      ],
      "name": "ERC721InvalidOwner",
      "type": "error"
    },
    {
      "inputs": [
        {
          "internalType": "address",
          "name": "receiver",
          "type": "address"
        }
      ],
      "name": "ERC721InvalidReceiver",
      "type": "error"
    },
    {
      "inputs": [
        {
          "internalType": "address",
          "name": "sender",
          "type": "address"
        }
      ],
      "name": "ERC721InvalidSender",
      "type": "error"
    },
    {
      "inputs": [
        {
          "internalType": "uint256",
          "name": "tokenId",
          "type": "uint256"
        }
      ],
      "name": "ERC721NonexistentToken",
      "type": "error"
    },
    {
      "inputs": [
        {
          "internalType": "address",
          "name": "owner",
          "type": "address"
        }
      ],
      "name": "OwnableInvalidOwner",
      "type": "error"
    },
    {
      "inputs": [
        {
          "internalType": "address",
          "name": "account",
          "type": "address"
        }
      ],
      "name": "OwnableUnauthorizedAccount",
      "type": "error"
    },
    {
      "anonymous": false,
      "inputs": [
        {
          "indexed": true,
          "internalType": "address",
          "name": "owner",
          "type": "address"
        },
        {
          "indexed": true,
          "internalType": "address",
          "name": "approved",
          "type": "address"
        },
        {
          "indexed": true,
          "internalType": "uint256",
          "name": "tokenId",
          "type": "uint256"
        }
      ],
      "name": "Approval",
      "type": "event"
    },
    {
      "anonymous": false,
      "inputs": [
        {
          "indexed": true,
          "internalType": "address",
          "name": "owner",
          "type": "address"
        },
        {
          "indexed": true,
          "internalType": "address",
          "name": "operator",
          "type": "address"
        },
        {
          "indexed": false,
          "internalType": "bool",
          "name": "approved",
          "type": "bool"
        }
      ],
      "name": "ApprovalForAll",
      "type": "event"
    },
    {
      "anonymous": false,
      "inputs": [
        {
          "indexed": false,
          "internalType": "uint256",
          "name": "_fromTokenId",
          "type": "uint256"
        },
        {
          "indexed": false,
          "internalType": "uint256",
          "name": "_toTokenId",
          "type": "uint256"
        }
      ],
      "name": "BatchMetadataUpdate",
      "type": "event"
    },
    {
      "anonymous": false,
      "inputs": [
        {
          "indexed": false,
          "internalType": "uint256",
          "name": "_tokenId",
          "type": "uint256"
        }
      ],
      "name": "MetadataUpdate",
      "type": "event"
    },
    {
      "anonymous": false,
      "inputs": [
        {
          "indexed": true,
          "internalType": "address",
          "name": "owner",
          "type": "address"
        },
        {
          "indexed": true,
          "internalType": "uint256",
          "name": "tokenId",
          "type": "uint256"
        },
        {
          "indexed": false,
          "internalType": "string",
          "name": "tokenURI",
          "type": "string"
        }
      ],
      "name": "NFTMinted",
      "type": "event"
    },
    {
      "anonymous": false,
      "inputs": [
        {
          "indexed": true,
          "internalType": "address",
          "name": "previousOwner",
          "type": "address"
        },
        {
          "indexed": true,
          "internalType": "address",
          "name": "newOwner",
          "type": "address"
        }
      ],
      "name": "OwnershipTransferred",
      "type": "event"
    },
    {
      "anonymous": false,
      "inputs": [
        {
          "indexed": true,
          "internalType": "address",
          "name": "from",
          "type": "address"
        },
        {
          "indexed": true,
          "internalType": "address",
          "name": "to",
          "type": "address"
        },
        {
          "indexed": true,
          "internalType": "uint256",
          "name": "tokenId",
          "type": "uint256"
        }
      ],
      "name": "Transfer",
      "type": "event"
    },
    {
      "inputs": [
        {
          "internalType": "address",
          "name": "to",
          "type": "address"
        },
        {
          "internalType": "uint256",
          "name": "tokenId",
          "type": "uint256"
        }
      ],
      "name": "approve",
      "outputs": [],
      "stateMutability": "nonpayable",
      "type": "function"
    },
    {
      "inputs": [
        {
          "internalType": "address",
          "name": "owner",
          "type": "address"
        }
      ],
      "name": "balanceOf",
      "outputs": [
        {
          "internalType": "uint256",
          "name": "",
          "type": "uint256"
        }
      ],
      "stateMutability": "view",
      "type": "function"
    },
    {
      "inputs": [
        {
          "internalType": "uint256",
          "name": "tokenId",
          "type": "uint256"
        }
      ],
      "name": "getApproved",
      "outputs": [
        {
          "internalType": "address",
          "name": "",
          "type": "address"
        }
      ],
      "stateMutability": "view",
      "type": "function"
    },
    {
      "inputs": [
        {
          "internalType": "address",
          "name": "owner",
          "type": "address"
        },
        {
          "internalType": "address",
          "name": "operator",
          "type": "address"
        }
      ],
      "name": "isApprovedForAll",
      "outputs": [
        {
          "internalType": "bool",
          "name": "",
          "type": "bool"
        }
      ],
      "stateMutability": "view",
      "type": "function"
    },
    {
      "inputs": [
        {
          "internalType": "address",
          "name": "recipient",
          "type": "address"
        },
        {
          "internalType": "string",
          "name": "tokenURI",
          "type": "string"
        }
      ],
      "name": "mintNFT",
      "outputs": [
        {
          "internalType": "uint256",
          "name": "",
          "type": "uint256"
        }
      ],
      "stateMutability": "nonpayable",
      "type": "function"
    },
    {
      "inputs": [],
      "name": "name",
      "outputs": [
        {
          "internalType": "string",
          "name": "",
          "type": "string"
        }
      ],
      "stateMutability": "view",
      "type": "function"
    },
    {
      "inputs": [],
      "name": "owner",
      "outputs": [
        {
          "internalType": "address",
          "name": "",
          "type": "address"
        }
      ],
      "stateMutability": "view",
      "type": "function"
    },
    {
      "inputs": [
        {
          "internalType": "uint256",
          "name": "tokenId",
          "type": "uint256"
        }
      ],
      "name": "ownerOf",
      "outputs": [
        {
          "internalType": "address",
          "name": "",
          "type": "address"
        }
      ],
      "stateMutability": "view",
      "type": "function"
    },
    {
      "inputs": [],
      "name": "renounceOwnership",
      "outputs": [],
      "stateMutability": "nonpayable",
      "type": "function"
    },
    {
      "inputs": [
        {
          "internalType": "address",
          "name": "from",
          "type": "address"
        },
        {
          "internalType": "address",
          "name": "to",
          "type": "address"
        },
        {
          "internalType": "uint256",
          "name": "tokenId",
          "type": "uint256"
        }
      ],
      "name": "safeTransferFrom",
      "outputs": [],
      "stateMutability": "nonpayable",
      "type": "function"
    },
    {
      "inputs": [
        {
          "internalType": "address",
          "name": "from",
          "type": "address"
        },
        {
          "internalType": "address",
          "name": "to",
          "type": "address"
        },
        {
          "internalType": "uint256",
          "name": "tokenId",
          "type": "uint256"
        },
        {
          "internalType": "bytes",
          "name": "data",
          "type": "bytes"
        }
      ],
      "name": "safeTransferFrom",
      "outputs": [],
      "stateMutability": "nonpayable",
      "type": "function"
    },
    {
      "inputs": [
        {
          "internalType": "address",
          "name": "operator",
          "type": "address"
        },
        {
          "internalType": "bool",
          "name": "approved",
          "type": "bool"
        }
      ],
      "name": "setApprovalForAll",
      "outputs": [],
      "stateMutability": "nonpayable",
      "type": "function"
    },
    {
      "inputs": [
        {
          "internalType": "bytes4",
          "name": "interfaceId",
          "type": "bytes4"
        }
      ],
      "name": "supportsInterface",
      "outputs": [
        {
          "internalType": "bool",
          "name": "",
          "type": "bool"
        }
      ],
      "stateMutability": "view",
      "type": "function"
    },
    {
      "inputs": [],
      "name": "symbol",
      "outputs": [
        {
          "internalType": "string",
          "name": "",
          "type": "string"
        }
      ],
      "stateMutability": "view",
      "type": "function"
    },
    {
      "inputs": [
        {
          "internalType": "uint256",
          "name": "tokenId",
          "type": "uint256"
        }
      ],
      "name": "tokenURI",
      "outputs": [
        {
          "internalType": "string",
          "name": "",
          "type": "string"
        }
      ],
      "stateMutability": "view",
      "type": "function"
    },
    {
      "inputs": [
        {
          "internalType": "address",
          "name": "owner",
          "type": "address"
        }
      ],
      "name": "tokensOfOwner",
      "outputs": [
        {
          "internalType": "uint256[]",
          "name": "",
          "type": "uint256[]"
        }
      ],
      "stateMutability": "view",
      "type": "function"
    },
    {
      "inputs": [
        {
          "internalType": "address",
          "name": "from",
          "type": "address"
        },
        {
          "internalType": "address",
          "name": "to",
          "type": "address"
        },
        {
          "internalType": "uint256",
          "name": "tokenId",
          "type": "uint256"
        }
      ],
      "name": "transferFrom",
      "outputs": [],
      "stateMutability": "nonpayable",
      "type": "function"
    },
    {
      "inputs": [
        {
          "internalType": "address",
          "name": "newOwner",
          "type": "address"
        }
      ],
      "name": "transferOwnership",
      "outputs": [],
      "stateMutability": "nonpayable",
      "type": "function"
    }
  ],
  "bytecode": "0x60806040523480156200001157600080fd5b506040516200190f3803806200190f833981016040819052620000349162000126565b8060405180604001604052806005815260200164135e53919560da1b8152506040518060400160405280600381526020016213919560ea1b8152508160009081620000809190620001ff565b5060016200008f8282620001ff565b5050506001600160a01b038116620000c157604051631e4fbdf760e01b81526000600482015260240160405180910390fd5b620000cc81620000d4565b5050620002cb565b600780546001600160a01b038381166001600160a01b0319831681179093556040519116919082907f8be0079c531659141344cd1fd0a4f28419497f9722a3daafe3b4186f6b6457e090600090a35050565b6000602082840312156200013957600080fd5b81516001600160a01b03811681146200015157600080fd5b9392505050565b634e487b7160e01b600052604160045260246000fd5b600181811c908216806200018357607f821691505b602082108103620001a457634e487b7160e01b600052602260045260246000fd5b50919050565b601f821115620001fa576000816000526020600020601f850160051c81016020861015620001d55750805b601f850160051c820191505b81811015620001f657828155600101620001e1565b5050505b505050565b81516001600160401b038111156200021b576200021b62000158565b62000233816200022c84546200016e565b84620001aa565b602080601f8311600181146200026b5760008415620002525750858301515b600019600386901b1c1916600185901b178555620001f6565b600085815260208120601f198616915b828110156200029c578886015182559484019460019091019084016200027b565b5085821015620002bb5787850151600019600388901b60f8161c191681555b5050505050600190811b01905550565b61163480620002db6000396000f3fe608060405234801561001057600080fd5b50600436106101165760003560e01c80638462151c116100a2578063b88d4fde11610071578063b88d4fde14610246578063c87b56dd14610259578063e985e9c51461026c578063eacabe141461027f578063f2fde38b1461029257600080fd5b80638462151c146101fa5780638da5cb5b1461021a57806395d89b411461022b578063a22cb4651461023357600080fd5b806323b872dd116100e957806323b872dd1461019857806342842e0e146101ab5780636352211e146101be57806370a08231146101d1578063715018a6146101f257600080fd5b806301ffc9a71461011b57806306fdde0314610143578063081812fc14610158578063095ea7b314610183575b600080fd5b61012e6101293660046110a3565b6102a5565b60405190151581526020015b60405180910390f35b61014b6102d0565b60405161013a9190611110565b61016b610166366004611123565b610362565b6040516001600160a01b03909116815260200161013a565b610196610191366004611158565b61038b565b005b6101966101a6366004611182565b61039a565b6101966101b9366004611182565b61042a565b61016b6101cc366004611123565b61044a565b6101e46101df3660046111be565b610455565b60405190815260200161013a565b61019661049d565b61020d6102083660046111be565b6104b1565b60405161013a91906111d9565b6007546001600160a01b031661016b565b61014b61057e565b61019661024136600461121d565b61058d565b6101966102543660046112e5565b610598565b61014b610267366004611123565b6105b0565b61012e61027a366004611361565b6106c1565b6101e461028d366004611394565b6106ef565b6101966102a03660046111be565b610815565b60006001600160e01b03198216632483248360e11b14806102ca57506102ca82610853565b92915050565b6060600080546102df906113f6565b80601f016020809104026020016040519081016040528092919081815260200182805461030b906113f6565b80156103585780601f1061032d57610100808354040283529160200191610358565b820191906000526020600020905b81548152906001019060200180831161033b57829003601f168201915b5050505050905090565b600061036d826108a3565b506000828152600460205260409020546001600160a01b03166102ca565b6103968282336108dc565b5050565b6001600160a01b0382166103c957604051633250574960e11b8152600060048201526024015b60405180910390fd5b60006103d68383336108e9565b9050836001600160a01b0316816001600160a01b031614610424576040516364283d7b60e01b81526001600160a01b03808616600483015260248201849052821660448201526064016103c0565b50505050565b61044583838360405180602001604052806000815250610598565b505050565b60006102ca826108a3565b60006001600160a01b038216610481576040516322718ad960e21b8152600060048201526024016103c0565b506001600160a01b031660009081526003602052604090205490565b6104a56109e2565b6104af6000610a0f565b565b606060006104be83610455565b905060008167ffffffffffffffff8111156104db576104db611259565b604051908082528060200260200182016040528015610504578160200160208202803683370190505b509050600060015b600854811161057457856001600160a01b03166105288261044a565b6001600160a01b031603610562578083838151811061054957610549611430565b60209081029190910101528161055e81611446565b9250505b8061056c81611446565b91505061050c565b5090949350505050565b6060600180546102df906113f6565b610396338383610a61565b6105a384848461039a565b6104243385858585610b00565b60606105bb826108a3565b50600082815260066020526040812080546105d5906113f6565b80601f0160208091040260200160405190810160405280929190818152602001828054610601906113f6565b801561064e5780601f106106235761010080835404028352916020019161064e565b820191906000526020600020905b81548152906001019060200180831161063157829003601f168201915b50505050509050600061066c60408051602081019091526000815290565b9050805160000361067e575092915050565b8151156106b057808260405160200161069892919061146d565b60405160208183030381529060405292505050919050565b6106b984610c2b565b949350505050565b6001600160a01b03918216600090815260056020908152604080832093909416825291909152205460ff1690565b60006106f96109e2565b600082511161074a5760405162461bcd60e51b815260206004820152601960248201527f546f6b656e205552492063616e6e6f7420626520656d7074790000000000000060448201526064016103c0565b6001600160a01b0383166107a05760405162461bcd60e51b815260206004820152601960248201527f496e76616c696420726563697069656e7420616464726573730000000000000060448201526064016103c0565b600880549060006107b083611446565b90915550506008546107c28482610ca0565b6107cc8184610d05565b80846001600160a01b03167fd35bb95e09c04b219e35047ce7b7b300e3384264ef84a40456943dbc0fc17c14856040516108069190611110565b60405180910390a39392505050565b61081d6109e2565b6001600160a01b03811661084757604051631e4fbdf760e01b8152600060048201526024016103c0565b61085081610a0f565b50565b60006001600160e01b031982166380ac58cd60e01b148061088457506001600160e01b03198216635b5e139f60e01b145b806102ca57506301ffc9a760e01b6001600160e01b03198316146102ca565b6000818152600260205260408120546001600160a01b0316806102ca57604051637e27328960e01b8152600481018490526024016103c0565b6104458383836001610d55565b6000828152600260205260408120546001600160a01b039081169083161561091657610916818486610e5b565b6001600160a01b0381161561095457610933600085600080610d55565b6001600160a01b038116600090815260036020526040902080546000190190555b6001600160a01b03851615610983576001600160a01b0385166000908152600360205260409020805460010190555b60008481526002602052604080822080546001600160a01b0319166001600160a01b0389811691821790925591518793918516917fddf252ad1be2c89b69c2b068fc378daa952ba7f163c4a11628f55a4df523b3ef91a4949350505050565b6007546001600160a01b031633146104af5760405163118cdaa760e01b81523360048201526024016103c0565b600780546001600160a01b038381166001600160a01b0319831681179093556040519116919082907f8be0079c531659141344cd1fd0a4f28419497f9722a3daafe3b4186f6b6457e090600090a35050565b6001600160a01b038216610a9357604051630b61174360e31b81526001600160a01b03831660048201526024016103c0565b6001600160a01b03838116600081815260056020908152604080832094871680845294825291829020805460ff191686151590811790915591519182527f17307eab39ab6107e8899845ad3d59bd9653f200f220920489ca2b5937696c31910160405180910390a3505050565b6001600160a01b0383163b15610c2457604051630a85bd0160e11b81526001600160a01b0384169063150b7a0290610b4290889088908790879060040161149c565b6020604051808303816000875af1925050508015610b7d575060408051601f3d908101601f19168201909252610b7a918101906114d9565b60015b610be6573d808015610bab576040519150601f19603f3d011682016040523d82523d6000602084013e610bb0565b606091505b508051600003610bde57604051633250574960e11b81526001600160a01b03851660048201526024016103c0565b805181602001fd5b6001600160e01b03198116630a85bd0160e11b14610c2257604051633250574960e11b81526001600160a01b03851660048201526024016103c0565b505b5050505050565b6060610c36826108a3565b506000610c4e60408051602081019091526000815290565b90506000815111610c6e5760405180602001604052806000815250610c99565b80610c7884610ebf565b604051602001610c8992919061146d565b6040516020818303038152906040525b9392505050565b6001600160a01b038216610cca57604051633250574960e11b8152600060048201526024016103c0565b6000610cd8838360006108e9565b90506001600160a01b03811615610445576040516339e3563760e11b8152600060048201526024016103c0565b6000828152600660205260409020610d1d828261153e565b506040518281527ff8e1a15aba9398e019f0b49df1a4fde98ee17ae345cb5f6b5e2c27f5033e8ce79060200160405180910390a15050565b8080610d6957506001600160a01b03821615155b15610e2b576000610d79846108a3565b90506001600160a01b03831615801590610da55750826001600160a01b0316816001600160a01b031614155b8015610db85750610db681846106c1565b155b15610de15760405163a9fbf51f60e01b81526001600160a01b03841660048201526024016103c0565b8115610e295783856001600160a01b0316826001600160a01b03167f8c5be1e5ebec7d5bd14f71427d1e84f3dd0314c0f7b2291e5b200ac8c7c3b92560405160405180910390a45b505b5050600090815260046020526040902080546001600160a01b0319166001600160a01b0392909216919091179055565b610e66838383610f52565b610445576001600160a01b038316610e9457604051637e27328960e01b8152600481018290526024016103c0565b60405163177e802f60e01b81526001600160a01b0383166004820152602481018290526044016103c0565b60606000610ecc83610fb5565b600101905060008167ffffffffffffffff811115610eec57610eec611259565b6040519080825280601f01601f191660200182016040528015610f16576020820181803683370190505b5090508181016020015b600019016f181899199a1a9b1b9c1cb0b131b232b360811b600a86061a8153600a8504945084610f2057509392505050565b60006001600160a01b038316158015906106b95750826001600160a01b0316846001600160a01b03161480610f8c5750610f8c84846106c1565b806106b95750506000908152600460205260409020546001600160a01b03908116911614919050565b60008072184f03e93ff9f4daa797ed6e38ed64bf6a1f0160401b8310610ff45772184f03e93ff9f4daa797ed6e38ed64bf6a1f0160401b830492506040015b6d04ee2d6d415b85acef81000000008310611020576d04ee2d6d415b85acef8100000000830492506020015b662386f26fc10000831061103e57662386f26fc10000830492506010015b6305f5e1008310611056576305f5e100830492506008015b612710831061106a57612710830492506004015b6064831061107c576064830492506002015b600a83106102ca5760010192915050565b6001600160e01b03198116811461085057600080fd5b6000602082840312156110b557600080fd5b8135610c998161108d565b60005b838110156110db5781810151838201526020016110c3565b50506000910152565b600081518084526110fc8160208601602086016110c0565b601f01601f19169290920160200192915050565b602081526000610c9960208301846110e4565b60006020828403121561113557600080fd5b5035919050565b80356001600160a01b038116811461115357600080fd5b919050565b6000806040838503121561116b57600080fd5b6111748361113c565b946020939093013593505050565b60008060006060848603121561119757600080fd5b6111a08461113c565b92506111ae6020850161113c565b9150604084013590509250925092565b6000602082840312156111d057600080fd5b610c998261113c565b6020808252825182820181905260009190848201906040850190845b81811015611211578351835292840192918401916001016111f5565b50909695505050505050565b6000806040838503121561123057600080fd5b6112398361113c565b91506020830135801515811461124e57600080fd5b809150509250929050565b634e487b7160e01b600052604160045260246000fd5b600067ffffffffffffffff8084111561128a5761128a611259565b604051601f8501601f19908116603f011681019082821181831017156112b2576112b2611259565b816040528093508581528686860111156112cb57600080fd5b858560208301376000602087830101525050509392505050565b600080600080608085870312156112fb57600080fd5b6113048561113c565b93506113126020860161113c565b925060408501359150606085013567ffffffffffffffff81111561133557600080fd5b8501601f8101871361134657600080fd5b6113558782356020840161126f565b91505092959194509250565b6000806040838503121561137457600080fd5b61137d8361113c565b915061138b6020840161113c565b90509250929050565b600080604083850312156113a757600080fd5b6113b08361113c565b9150602083013567ffffffffffffffff8111156113cc57600080fd5b8301601f810185136113dd57600080fd5b6113ec8582356020840161126f565b9150509250929050565b600181811c9082168061140a57607f821691505b60208210810361142a57634e487b7160e01b600052602260045260246000fd5b50919050565b634e487b7160e01b600052603260045260246000fd5b60006001820161146657634e487b7160e01b600052601160045260246000fd5b5060010190565b6000835161147f8184602088016110c0565b8351908301906114938183602088016110c0565b01949350505050565b6001600160a01b03858116825284166020820152604081018390526080606082018190526000906114cf908301846110e4565b9695505050505050565b6000602082840312156114eb57600080fd5b8151610c998161108d565b601f821115610445576000816000526020600020601f850160051c8101602086101561151f5750805b601f850160051c820191505b81811015610c225782815560010161152b565b815167ffffffffffffffff81111561155857611558611259565b61156c8161156684546113f6565b846114f6565b602080601f8311600181146115a157600084156115895750858301515b600019600386901b1c1916600185901b178555610c22565b600085815260208120601f198616915b828110156115d0578886015182559484019460019091019084016115b1565b50858210156115ee5787850151600019600388901b60f8161c191681555b5050505050600190811b0190555056fea2646970667358221220142f24c2e1280efba96c1bf2815f2aaf4a37eb6d803dc212a2a7c8f9d79aa52164736f6c63430008180033",
  "linkReferences": {},
  "deployedLinkReferences": {}
}