{
  "_format": "hh-sol-artifact-1",
  "contractName": "MyNFT",
  "sourceName": "contracts/MyNFT.sol",
  "abi": [
    {
      "inputs": [
        {
          "internalType": "address",
          "name": "initialOwner",
          "type": "address"
        }
      ],
      "stateMutability": "nonpayable",
      "type": "constructor"
    },
    {
      "inputs": [
        {
          "internalType": "address",
          "name": "sender",
          "type": "address"
        },
        {
          "internalType": "uint256",
          "name": "tokenId",
          "type": "uint256"
        },
        {
          "internalType": "address",
          "name": "owner",
          "type": "address"
        }
      ],
      "name": "ERC721IncorrectOwner",
      "type": "error"
    },
    {
      "inputs": [
        {
          "internalType": "address",
          "name": "operator",
          "type": "address"
        },
        {
          "internalType": "uint256",
          "name": "tokenId",
          "type": "uint256"
        }
      ],
      "name": "ERC721InsufficientApproval",
      "type": "error"
    },
    {
      "inputs": [
        {
          "internalType": "address",
          "name": "approver",
          "type": "address"
        }
      ],
      "name": "ERC721InvalidApprover",
      "type": "error"
    },
    {
      "inputs": [
        {
          "internalType": "address",
          "name": "operator",
          "type": "address"
        }
      ],
      "name": "ERC721InvalidOperator",
      "type": "error"
    },
    {
      "inputs": [
        {
          "internalType": "address",
          "name": "owner",
          "type": "address"
        }
      ],
      "name": "ERC721InvalidOwner",
      "type": "error"
    },
    {
      "inputs": [
        {
          "internalType": "address",
          "name": "receiver",
          "type": "address"
        }
      ],
      "name": "ERC721InvalidReceiver",
      "type": "error"
    },
    {
      "inputs": [
        {
          "internalType": "address",
          "name": "sender",
          "type": "address"
        }
      ],
      "name": "ERC721InvalidSender",
      "type": "error"
    },
    {
      "inputs": [
        {
          "internalType": "uint256",
          "name": "tokenId",
          "type": "uint256"
        }
      ],
      "name": "ERC721NonexistentToken",
      "type": "error"
    },
    {
      "inputs": [
        {
          "internalType": "address",
          "name": "owner",
          "type": "address"
        }
      ],
      "name": "OwnableInvalidOwner",
      "type": "error"
    },
    {
      "inputs": [
        {
          "internalType": "address",
          "name": "account",
          "type": "address"
        }
      ],
      "name": "OwnableUnauthorizedAccount",
      "type": "error"
    },
    {
      "inputs": [],
      "name": "ReentrancyGuardReentrantCall",
      "type": "error"
    },
    {
      "anonymous": false,
      "inputs": [
        {
          "indexed": true,
          "internalType": "address",
          "name": "owner",
          "type": "address"
        },
        {
          "indexed": true,
          "internalType": "address",
          "name": "approved",
          "type": "address"
        },
        {
          "indexed": true,
          "internalType": "uint256",
          "name": "tokenId",
          "type": "uint256"
        }
      ],
      "name": "Approval",
      "type": "event"
    },
    {
      "anonymous": false,
      "inputs": [
        {
          "indexed": true,
          "internalType": "address",
          "name": "owner",
          "type": "address"
        },
        {
          "indexed": true,
          "internalType": "address",
          "name": "operator",
          "type": "address"
        },
        {
          "indexed": false,
          "internalType": "bool",
          "name": "approved",
          "type": "bool"
        }
      ],
      "name": "ApprovalForAll",
      "type": "event"
    },
    {
      "anonymous": false,
      "inputs": [
        {
          "indexed": false,
          "internalType": "uint256",
          "name": "_fromTokenId",
          "type": "uint256"
        },
        {
          "indexed": false,
          "internalType": "uint256",
          "name": "_toTokenId",
          "type": "uint256"
        }
      ],
      "name": "BatchMetadataUpdate",
      "type": "event"
    },
    {
      "anonymous": false,
      "inputs": [
        {
          "indexed": false,
          "internalType": "uint256",
          "name": "_tokenId",
          "type": "uint256"
        }
      ],
      "name": "MetadataUpdate",
      "type": "event"
    },
    {
      "anonymous": false,
      "inputs": [
        {
          "indexed": true,
          "internalType": "uint256",
          "name": "tokenId",
          "type": "uint256"
        }
      ],
      "name": "NFTDelisted",
      "type": "event"
    },
    {
      "anonymous": false,
      "inputs": [
        {
          "indexed": true,
          "internalType": "uint256",
          "name": "tokenId",
          "type": "uint256"
        },
        {
          "indexed": false,
          "internalType": "uint256",
          "name": "price",
          "type": "uint256"
        }
      ],
      "name": "NFTListed",
      "type": "event"
    },
    {
      "anonymous": false,
      "inputs": [
        {
          "indexed": true,
          "internalType": "address",
          "name": "owner",
          "type": "address"
        },
        {
          "indexed": true,
          "internalType": "uint256",
          "name": "tokenId",
          "type": "uint256"
        },
        {
          "indexed": false,
          "internalType": "string",
          "name": "tokenURI",
          "type": "string"
        }
      ],
      "name": "NFTMinted",
      "type": "event"
    },
    {
      "anonymous": false,
      "inputs": [
        {
          "indexed": true,
          "internalType": "uint256",
          "name": "tokenId",
          "type": "uint256"
        },
        {
          "indexed": true,
          "internalType": "address",
          "name": "from",
          "type": "address"
        },
        {
          "indexed": true,
          "internalType": "address",
          "name": "to",
          "type": "address"
        },
        {
          "indexed": false,
          "internalType": "uint256",
          "name": "price",
          "type": "uint256"
        }
      ],
      "name": "NFTSold",
      "type": "event"
    },
    {
      "anonymous": false,
      "inputs": [
        {
          "indexed": true,
          "internalType": "address",
          "name": "previousOwner",
          "type": "address"
        },
        {
          "indexed": true,
          "internalType": "address",
          "name": "newOwner",
          "type": "address"
        }
      ],
      "name": "OwnershipTransferred",
      "type": "event"
    },
    {
      "anonymous": false,
      "inputs": [
        {
          "indexed": true,
          "internalType": "address",
          "name": "from",
          "type": "address"
        },
        {
          "indexed": true,
          "internalType": "address",
          "name": "to",
          "type": "address"
        },
        {
          "indexed": true,
          "internalType": "uint256",
          "name": "tokenId",
          "type": "uint256"
        }
      ],
      "name": "Transfer",
      "type": "event"
    },
    {
      "inputs": [
        {
          "internalType": "address",
          "name": "to",
          "type": "address"
        },
        {
          "internalType": "uint256",
          "name": "tokenId",
          "type": "uint256"
        }
      ],
      "name": "approve",
      "outputs": [],
      "stateMutability": "nonpayable",
      "type": "function"
    },
    {
      "inputs": [
        {
          "internalType": "address",
          "name": "owner",
          "type": "address"
        }
      ],
      "name": "balanceOf",
      "outputs": [
        {
          "internalType": "uint256",
          "name": "",
          "type": "uint256"
        }
      ],
      "stateMutability": "view",
      "type": "function"
    },
    {
      "inputs": [
        {
          "internalType": "uint256",
          "name": "tokenId",
          "type": "uint256"
        }
      ],
      "name": "buyNFT",
      "outputs": [],
      "stateMutability": "payable",
      "type": "function"
    },
    {
      "inputs": [
        {
          "internalType": "uint256",
          "name": "tokenId",
          "type": "uint256"
        }
      ],
      "name": "cancelSale",
      "outputs": [],
      "stateMutability": "nonpayable",
      "type": "function"
    },
    {
      "inputs": [
        {
          "internalType": "uint256",
          "name": "tokenId",
          "type": "uint256"
        }
      ],
      "name": "getApproved",
      "outputs": [
        {
          "internalType": "address",
          "name": "",
          "type": "address"
        }
      ],
      "stateMutability": "view",
      "type": "function"
    },
    {
      "inputs": [],
      "name": "getTokensEnVenta",
      "outputs": [
        {
          "internalType": "uint256[]",
          "name": "",
          "type": "uint256[]"
        }
      ],
      "stateMutability": "view",
      "type": "function"
    },
    {
      "inputs": [
        {
          "internalType": "address",
          "name": "owner",
          "type": "address"
        },
        {
          "internalType": "address",
          "name": "operator",
          "type": "address"
        }
      ],
      "name": "isApprovedForAll",
      "outputs": [
        {
          "internalType": "bool",
          "name": "",
          "type": "bool"
        }
      ],
      "stateMutability": "view",
      "type": "function"
    },
    {
      "inputs": [
        {
          "internalType": "address",
          "name": "recipient",
          "type": "address"
        },
        {
          "internalType": "string",
          "name": "tokenURI",
          "type": "string"
        }
      ],
      "name": "mintNFT",
      "outputs": [
        {
          "internalType": "uint256",
          "name": "",
          "type": "uint256"
        }
      ],
      "stateMutability": "nonpayable",
      "type": "function"
    },
    {
      "inputs": [],
      "name": "name",
      "outputs": [
        {
          "internalType": "string",
          "name": "",
          "type": "string"
        }
      ],
      "stateMutability": "view",
      "type": "function"
    },
    {
      "inputs": [],
      "name": "owner",
      "outputs": [
        {
          "internalType": "address",
          "name": "",
          "type": "address"
        }
      ],
      "stateMutability": "view",
      "type": "function"
    },
    {
      "inputs": [
        {
          "internalType": "uint256",
          "name": "tokenId",
          "type": "uint256"
        }
      ],
      "name": "ownerOf",
      "outputs": [
        {
          "internalType": "address",
          "name": "",
          "type": "address"
        }
      ],
      "stateMutability": "view",
      "type": "function"
    },
    {
      "inputs": [],
      "name": "renounceOwnership",
      "outputs": [],
      "stateMutability": "nonpayable",
      "type": "function"
    },
    {
      "inputs": [
        {
          "internalType": "address",
          "name": "from",
          "type": "address"
        },
        {
          "internalType": "address",
          "name": "to",
          "type": "address"
        },
        {
          "internalType": "uint256",
          "name": "tokenId",
          "type": "uint256"
        }
      ],
      "name": "safeTransferFrom",
      "outputs": [],
      "stateMutability": "nonpayable",
      "type": "function"
    },
    {
      "inputs": [
        {
          "internalType": "address",
          "name": "from",
          "type": "address"
        },
        {
          "internalType": "address",
          "name": "to",
          "type": "address"
        },
        {
          "internalType": "uint256",
          "name": "tokenId",
          "type": "uint256"
        },
        {
          "internalType": "bytes",
          "name": "data",
          "type": "bytes"
        }
      ],
      "name": "safeTransferFrom",
      "outputs": [],
      "stateMutability": "nonpayable",
      "type": "function"
    },
    {
      "inputs": [
        {
          "internalType": "address",
          "name": "operator",
          "type": "address"
        },
        {
          "internalType": "bool",
          "name": "approved",
          "type": "bool"
        }
      ],
      "name": "setApprovalForAll",
      "outputs": [],
      "stateMutability": "nonpayable",
      "type": "function"
    },
    {
      "inputs": [
        {
          "internalType": "uint256",
          "name": "tokenId",
          "type": "uint256"
        },
        {
          "internalType": "uint256",
          "name": "price",
          "type": "uint256"
        }
      ],
      "name": "setPrice",
      "outputs": [],
      "stateMutability": "nonpayable",
      "type": "function"
    },
    {
      "inputs": [
        {
          "internalType": "bytes4",
          "name": "interfaceId",
          "type": "bytes4"
        }
      ],
      "name": "supportsInterface",
      "outputs": [
        {
          "internalType": "bool",
          "name": "",
          "type": "bool"
        }
      ],
      "stateMutability": "view",
      "type": "function"
    },
    {
      "inputs": [],
      "name": "symbol",
      "outputs": [
        {
          "internalType": "string",
          "name": "",
          "type": "string"
        }
      ],
      "stateMutability": "view",
      "type": "function"
    },
    {
      "inputs": [
        {
          "internalType": "uint256",
          "name": "",
          "type": "uint256"
        }
      ],
      "name": "tokenPrices",
      "outputs": [
        {
          "internalType": "uint256",
          "name": "",
          "type": "uint256"
        }
      ],
      "stateMutability": "view",
      "type": "function"
    },
    {
      "inputs": [
        {
          "internalType": "uint256",
          "name": "tokenId",
          "type": "uint256"
        }
      ],
      "name": "tokenURI",
      "outputs": [
        {
          "internalType": "string",
          "name": "",
          "type": "string"
        }
      ],
      "stateMutability": "view",
      "type": "function"
    },
    {
      "inputs": [
        {
          "internalType": "uint256",
          "name": "",
          "type": "uint256"
        }
      ],
      "name": "tokensEnVenta",
      "outputs": [
        {
          "internalType": "uint256",
          "name": "",
          "type": "uint256"
        }
      ],
      "stateMutability": "view",
      "type": "function"
    },
    {
      "inputs": [
        {
          "internalType": "address",
          "name": "owner",
          "type": "address"
        }
      ],
      "name": "tokensOfOwner",
      "outputs": [
        {
          "internalType": "uint256[]",
          "name": "",
          "type": "uint256[]"
        }
      ],
      "stateMutability": "view",
      "type": "function"
    },
    {
      "inputs": [
        {
          "internalType": "address",
          "name": "from",
          "type": "address"
        },
        {
          "internalType": "address",
          "name": "to",
          "type": "address"
        },
        {
          "internalType": "uint256",
          "name": "tokenId",
          "type": "uint256"
        }
      ],
      "name": "transferFrom",
      "outputs": [],
      "stateMutability": "nonpayable",
      "type": "function"
    },
    {
      "inputs": [
        {
          "internalType": "address",
          "name": "newOwner",
          "type": "address"
        }
      ],
      "name": "transferOwnership",
      "outputs": [],
      "stateMutability": "nonpayable",
      "type": "function"
    }
  ],
  "bytecode": "0x60806040523480156200001157600080fd5b50604051620021873803806200218783398101604081905262000034916200012b565b8060405180604001604052806005815260200164135e53919560da1b8152506040518060400160405280600381526020016213919560ea1b815250816000908162000080919062000204565b5060016200008f828262000204565b5050506001600160a01b038116620000c157604051631e4fbdf760e01b81526000600482015260240160405180910390fd5b620000cc81620000d9565b50506001600855620002d0565b600780546001600160a01b038381166001600160a01b0319831681179093556040519116919082907f8be0079c531659141344cd1fd0a4f28419497f9722a3daafe3b4186f6b6457e090600090a35050565b6000602082840312156200013e57600080fd5b81516001600160a01b03811681146200015657600080fd5b9392505050565b634e487b7160e01b600052604160045260246000fd5b600181811c908216806200018857607f821691505b602082108103620001a957634e487b7160e01b600052602260045260246000fd5b50919050565b601f821115620001ff576000816000526020600020601f850160051c81016020861015620001da5750805b601f850160051c820191505b81811015620001fb57828155600101620001e6565b5050505b505050565b81516001600160401b038111156200022057620002206200015d565b620002388162000231845462000173565b84620001af565b602080601f831160018114620002705760008415620002575750858301515b600019600386901b1c1916600185901b178555620001fb565b600085815260208120601f198616915b82811015620002a15788860151825594840194600190910190840162000280565b5085821015620002c05787850151600019600388901b60f8161c191681555b5050505050600190811b01905550565b611ea780620002e06000396000f3fe60806040526004361061014b5760003560e01c80638462151c116100b6578063c87b56dd1161006f578063c87b56dd146103ac578063e5afe3e6146103cc578063e985e9c5146103f9578063eacabe1414610419578063f2fde38b14610439578063f7d975771461045957600080fd5b80638462151c146102f95780638da5cb5b1461031957806395d89b4114610337578063a22cb4651461034c578063b88d4fde1461036c578063bd94b0051461038c57600080fd5b806323b872dd1161010857806323b872dd1461025157806342842e0e1461027157806351ed8288146102915780636352211e146102a457806370a08231146102c4578063715018a6146102e457600080fd5b806301ffc9a71461015057806306fdde0314610185578063081812fc146101a7578063095ea7b3146101df5780630b02095c14610201578063132e950814610223575b600080fd5b34801561015c57600080fd5b5061017061016b3660046118bb565b610479565b60405190151581526020015b60405180910390f35b34801561019157600080fd5b5061019a6104a4565b60405161017c9190611928565b3480156101b357600080fd5b506101c76101c236600461193b565b610536565b6040516001600160a01b03909116815260200161017c565b3480156101eb57600080fd5b506101ff6101fa366004611970565b61055f565b005b34801561020d57600080fd5b5061021661056e565b60405161017c919061199a565b34801561022f57600080fd5b5061024361023e36600461193b565b6105c5565b60405190815260200161017c565b34801561025d57600080fd5b506101ff61026c3660046119de565b6105e6565b34801561027d57600080fd5b506101ff61028c3660046119de565b610676565b6101ff61029f36600461193b565b610696565b3480156102b057600080fd5b506101c76102bf36600461193b565b610820565b3480156102d057600080fd5b506102436102df366004611a1a565b61082b565b3480156102f057600080fd5b506101ff610873565b34801561030557600080fd5b50610216610314366004611a1a565b610887565b34801561032557600080fd5b506007546001600160a01b03166101c7565b34801561034357600080fd5b5061019a6108f3565b34801561035857600080fd5b506101ff610367366004611a35565b610902565b34801561037857600080fd5b506101ff610387366004611afd565b61090d565b34801561039857600080fd5b506101ff6103a736600461193b565b610924565b3480156103b857600080fd5b5061019a6103c736600461193b565b610a08565b3480156103d857600080fd5b506102436103e736600461193b565b600b6020526000908152604090205481565b34801561040557600080fd5b50610170610414366004611b79565b610b19565b34801561042557600080fd5b50610243610434366004611bac565b610b47565b34801561044557600080fd5b506101ff610454366004611a1a565b610c92565b34801561046557600080fd5b506101ff610474366004611c0e565b610ccd565b60006001600160e01b03198216632483248360e11b148061049e575061049e82610df0565b92915050565b6060600080546104b390611c30565b80601f01602080910402602001604051908101604052809291908181526020018280546104df90611c30565b801561052c5780601f106105015761010080835404028352916020019161052c565b820191906000526020600020905b81548152906001019060200180831161050f57829003601f168201915b5050505050905090565b600061054182610e40565b506000828152600460205260409020546001600160a01b031661049e565b61056a828233610e79565b5050565b6060600c80548060200260200160405190810160405280929190818152602001828054801561052c57602002820191906000526020600020905b8154815260200190600101908083116105a8575050505050905090565b600c81815481106105d557600080fd5b600091825260209091200154905081565b6001600160a01b03821661061557604051633250574960e11b8152600060048201526024015b60405180910390fd5b6000610622838333610e86565b9050836001600160a01b0316816001600160a01b031614610670576040516364283d7b60e01b81526001600160a01b038086166004830152602482018490528216604482015260640161060c565b50505050565b6106918383836040518060200160405280600081525061090d565b505050565b61069e610f7f565b6000818152600b6020526040812054906106b783610820565b9050600082116106fc5760405162461bcd60e51b815260206004820152601060248201526f4e4654206e6f7420666f722073616c6560801b604482015260640161060c565b8134101561073d5760405162461bcd60e51b815260206004820152600e60248201526d09cdee840cadcdeeaced0408aa8960931b604482015260640161060c565b610748813385610fa9565b6000838152600b602052604081205561076083611059565b336000908152600a602090815260408220805460018101825590835291200183905561078c8184611107565b6040516001600160a01b0382169083156108fc029084906000818181858888f193505050501580156107c2573d6000803e3d6000fd5b50336001600160a01b0316816001600160a01b0316847f8562eb94748e30bb0071e932744ce902b460c683474fcb3bfd567ffa16b1afb28560405161080991815260200190565b60405180910390a4505061081d6001600855565b50565b600061049e82610e40565b60006001600160a01b038216610857576040516322718ad960e21b81526000600482015260240161060c565b506001600160a01b031660009081526003602052604090205490565b61087b6111cb565b61088560006111f8565b565b6001600160a01b0381166000908152600a60209081526040918290208054835181840281018401909452808452606093928301828280156108e757602002820191906000526020600020905b8154815260200190600101908083116108d3575b50505050509050919050565b6060600180546104b390611c30565b61056a33838361124a565b6109188484846105e6565b610670848484846112e9565b3361092e82610820565b6001600160a01b0316146109745760405162461bcd60e51b815260206004820152600d60248201526c2737ba103a34329037bbb732b960991b604482015260640161060c565b6000818152600b60205260409020546109c25760405162461bcd60e51b815260206004820152601060248201526f151bdad95b881b9bdd081b1a5cdd195960821b604482015260640161060c565b6000818152600b60205260408120556109da81611059565b60405181907fc0c55a6edead4433d18cb1e287a0a20a2fa003a6f483bc9823d2e504d70d1c6790600090a250565b6060610a1382610e40565b5060008281526006602052604081208054610a2d90611c30565b80601f0160208091040260200160405190810160405280929190818152602001828054610a5990611c30565b8015610aa65780601f10610a7b57610100808354040283529160200191610aa6565b820191906000526020600020905b815481529060010190602001808311610a8957829003601f168201915b505050505090506000610ac460408051602081019091526000815290565b90508051600003610ad6575092915050565b815115610b08578082604051602001610af0929190611c6a565b60405160208183030381529060405292505050919050565b610b1184611412565b949350505050565b6001600160a01b03918216600090815260056020908152604080832093909416825291909152205460ff1690565b6000610b516111cb565b6000825111610ba25760405162461bcd60e51b815260206004820152601960248201527f546f6b656e205552492063616e6e6f7420626520656d70747900000000000000604482015260640161060c565b6001600160a01b038316610bf85760405162461bcd60e51b815260206004820152601960248201527f496e76616c696420726563697069656e74206164647265737300000000000000604482015260640161060c565b60098054906000610c0883611caf565b9091555050600954610c1a8482611487565b610c2481846114a1565b6001600160a01b0384166000818152600a6020908152604080832080546001810182559084529190922001839055518291907fd35bb95e09c04b219e35047ce7b7b300e3384264ef84a40456943dbc0fc17c1490610c83908790611928565b60405180910390a39392505050565b610c9a6111cb565b6001600160a01b038116610cc457604051631e4fbdf760e01b81526000600482015260240161060c565b61081d816111f8565b33610cd783610820565b6001600160a01b031614610d1d5760405162461bcd60e51b815260206004820152600d60248201526c2737ba103a34329037bbb732b960991b604482015260640161060c565b60008111610d6d5760405162461bcd60e51b815260206004820152601c60248201527f5072696365206d7573742062652067726561746572207468616e203000000000604482015260640161060c565b6000828152600b6020526040808220839055600c805460018101825592527fdf6966c971051c3d54ec59162606531493a51404a002842f56009d7e5cf4a8c79091018390555182907fa6cd73580a273eec6c1026108f6b63479fbaef5356dde4ff43e4b38dd187485f90610de49084815260200190565b60405180910390a25050565b60006001600160e01b031982166380ac58cd60e01b1480610e2157506001600160e01b03198216635b5e139f60e01b145b8061049e57506301ffc9a760e01b6001600160e01b031983161461049e565b6000818152600260205260408120546001600160a01b03168061049e57604051637e27328960e01b81526004810184905260240161060c565b61069183838360016114f1565b6000828152600260205260408120546001600160a01b0390811690831615610eb357610eb38184866115f7565b6001600160a01b03811615610ef157610ed06000856000806114f1565b6001600160a01b038116600090815260036020526040902080546000190190555b6001600160a01b03851615610f20576001600160a01b0385166000908152600360205260409020805460010190555b60008481526002602052604080822080546001600160a01b0319166001600160a01b0389811691821790925591518793918516917fddf252ad1be2c89b69c2b068fc378daa952ba7f163c4a11628f55a4df523b3ef91a4949350505050565b600260085403610fa257604051633ee5aeb560e01b815260040160405180910390fd5b6002600855565b6001600160a01b038216610fd357604051633250574960e11b81526000600482015260240161060c565b6000610fe183836000610e86565b90506001600160a01b03811661100d57604051637e27328960e01b81526004810183905260240161060c565b836001600160a01b0316816001600160a01b031614610670576040516364283d7b60e01b81526001600160a01b038086166004830152602482018490528216604482015260640161060c565b60005b600c5481101561056a5781600c828154811061107a5761107a611cc8565b9060005260206000200154036110ff57600c805461109a90600190611cde565b815481106110aa576110aa611cc8565b9060005260206000200154600c82815481106110c8576110c8611cc8565b600091825260209091200155600c8054806110e5576110e5611cf1565b600190038181906000526020600020016000905590555050565b60010161105c565b6001600160a01b0382166000908152600a60205260408120905b8154811015610670578282828154811061113d5761113d611cc8565b9060005260206000200154036111c3578154829061115d90600190611cde565b8154811061116d5761116d611cc8565b906000526020600020015482828154811061118a5761118a611cc8565b9060005260206000200181905550818054806111a8576111a8611cf1565b60019003818190600052602060002001600090559055610670565b600101611121565b6007546001600160a01b031633146108855760405163118cdaa760e01b815233600482015260240161060c565b600780546001600160a01b038381166001600160a01b0319831681179093556040519116919082907f8be0079c531659141344cd1fd0a4f28419497f9722a3daafe3b4186f6b6457e090600090a35050565b6001600160a01b03821661127c57604051630b61174360e31b81526001600160a01b038316600482015260240161060c565b6001600160a01b03838116600081815260056020908152604080832094871680845294825291829020805460ff191686151590811790915591519182527f17307eab39ab6107e8899845ad3d59bd9653f200f220920489ca2b5937696c31910160405180910390a3505050565b6001600160a01b0383163b1561067057604051630a85bd0160e11b81526001600160a01b0384169063150b7a029061132b903390889087908790600401611d07565b6020604051808303816000875af1925050508015611366575060408051601f3d908101601f1916820190925261136391810190611d44565b60015b6113cf573d808015611394576040519150601f19603f3d011682016040523d82523d6000602084013e611399565b606091505b5080516000036113c757604051633250574960e11b81526001600160a01b038516600482015260240161060c565b805181602001fd5b6001600160e01b03198116630a85bd0160e11b1461140b57604051633250574960e11b81526001600160a01b038516600482015260240161060c565b5050505050565b606061141d82610e40565b50600061143560408051602081019091526000815290565b905060008151116114555760405180602001604052806000815250611480565b8061145f8461165b565b604051602001611470929190611c6a565b6040516020818303038152906040525b9392505050565b61056a8282604051806020016040528060008152506116ee565b60008281526006602052604090206114b98282611db1565b506040518281527ff8e1a15aba9398e019f0b49df1a4fde98ee17ae345cb5f6b5e2c27f5033e8ce79060200160405180910390a15050565b808061150557506001600160a01b03821615155b156115c757600061151584610e40565b90506001600160a01b038316158015906115415750826001600160a01b0316816001600160a01b031614155b801561155457506115528184610b19565b155b1561157d5760405163a9fbf51f60e01b81526001600160a01b038416600482015260240161060c565b81156115c55783856001600160a01b0316826001600160a01b03167f8c5be1e5ebec7d5bd14f71427d1e84f3dd0314c0f7b2291e5b200ac8c7c3b92560405160405180910390a45b505b5050600090815260046020526040902080546001600160a01b0319166001600160a01b0392909216919091179055565b611602838383611705565b610691576001600160a01b03831661163057604051637e27328960e01b81526004810182905260240161060c565b60405163177e802f60e01b81526001600160a01b03831660048201526024810182905260440161060c565b6060600061166883611768565b600101905060008167ffffffffffffffff81111561168857611688611a71565b6040519080825280601f01601f1916602001820160405280156116b2576020820181803683370190505b5090508181016020015b600019016f181899199a1a9b1b9c1cb0b131b232b360811b600a86061a8153600a85049450846116bc57509392505050565b6116f88383611840565b61069160008484846112e9565b60006001600160a01b03831615801590610b115750826001600160a01b0316846001600160a01b0316148061173f575061173f8484610b19565b80610b115750506000908152600460205260409020546001600160a01b03908116911614919050565b60008072184f03e93ff9f4daa797ed6e38ed64bf6a1f0160401b83106117a75772184f03e93ff9f4daa797ed6e38ed64bf6a1f0160401b830492506040015b6d04ee2d6d415b85acef810000000083106117d3576d04ee2d6d415b85acef8100000000830492506020015b662386f26fc1000083106117f157662386f26fc10000830492506010015b6305f5e1008310611809576305f5e100830492506008015b612710831061181d57612710830492506004015b6064831061182f576064830492506002015b600a831061049e5760010192915050565b6001600160a01b03821661186a57604051633250574960e11b81526000600482015260240161060c565b600061187883836000610e86565b90506001600160a01b03811615610691576040516339e3563760e11b81526000600482015260240161060c565b6001600160e01b03198116811461081d57600080fd5b6000602082840312156118cd57600080fd5b8135611480816118a5565b60005b838110156118f35781810151838201526020016118db565b50506000910152565b600081518084526119148160208601602086016118d8565b601f01601f19169290920160200192915050565b60208152600061148060208301846118fc565b60006020828403121561194d57600080fd5b5035919050565b80356001600160a01b038116811461196b57600080fd5b919050565b6000806040838503121561198357600080fd5b61198c83611954565b946020939093013593505050565b6020808252825182820181905260009190848201906040850190845b818110156119d2578351835292840192918401916001016119b6565b50909695505050505050565b6000806000606084860312156119f357600080fd5b6119fc84611954565b9250611a0a60208501611954565b9150604084013590509250925092565b600060208284031215611a2c57600080fd5b61148082611954565b60008060408385031215611a4857600080fd5b611a5183611954565b915060208301358015158114611a6657600080fd5b809150509250929050565b634e487b7160e01b600052604160045260246000fd5b600067ffffffffffffffff80841115611aa257611aa2611a71565b604051601f8501601f19908116603f01168101908282118183101715611aca57611aca611a71565b81604052809350858152868686011115611ae357600080fd5b858560208301376000602087830101525050509392505050565b60008060008060808587031215611b1357600080fd5b611b1c85611954565b9350611b2a60208601611954565b925060408501359150606085013567ffffffffffffffff811115611b4d57600080fd5b8501601f81018713611b5e57600080fd5b611b6d87823560208401611a87565b91505092959194509250565b60008060408385031215611b8c57600080fd5b611b9583611954565b9150611ba360208401611954565b90509250929050565b60008060408385031215611bbf57600080fd5b611bc883611954565b9150602083013567ffffffffffffffff811115611be457600080fd5b8301601f81018513611bf557600080fd5b611c0485823560208401611a87565b9150509250929050565b60008060408385031215611c2157600080fd5b50508035926020909101359150565b600181811c90821680611c4457607f821691505b602082108103611c6457634e487b7160e01b600052602260045260246000fd5b50919050565b60008351611c7c8184602088016118d8565b835190830190611c908183602088016118d8565b01949350505050565b634e487b7160e01b600052601160045260246000fd5b600060018201611cc157611cc1611c99565b5060010190565b634e487b7160e01b600052603260045260246000fd5b8181038181111561049e5761049e611c99565b634e487b7160e01b600052603160045260246000fd5b6001600160a01b0385811682528416602082015260408101839052608060608201819052600090611d3a908301846118fc565b9695505050505050565b600060208284031215611d5657600080fd5b8151611480816118a5565b601f821115610691576000816000526020600020601f850160051c81016020861015611d8a5750805b601f850160051c820191505b81811015611da957828155600101611d96565b505050505050565b815167ffffffffffffffff811115611dcb57611dcb611a71565b611ddf81611dd98454611c30565b84611d61565b602080601f831160018114611e145760008415611dfc5750858301515b600019600386901b1c1916600185901b178555611da9565b600085815260208120601f198616915b82811015611e4357888601518255948401946001909101908401611e24565b5085821015611e615787850151600019600388901b60f8161c191681555b5050505050600190811b0190555056fea26469706673582212205c9756d84431bce6ff55a0e4c8dc65c1846db34fb4ef2b150768869ac410fa1364736f6c63430008180033",
  "linkReferences": {},
  "deployedLinkReferences": {}
}